{
	"data": {
		"bytecode": {
			"linkReferences": {},
			"object": "608060405234801561001057600080fd5b506103e860028190555061062a806100296000396000f3fe608060405234801561001057600080fd5b50600436106100575760003560e01c806320e6984a1461005c578063216dbcaf1461007b57806340b2b8ea14610097578063512c009a146100b557806380145671146100d3575b600080fd5b6100646100dd565b6040516100729291906103ee565b60405180910390f35b6100956004803603810190610090919061034a565b610177565b005b61009f61019e565b6040516100ac919061041e565b60405180910390f35b6100bd6101a4565b6040516100ca919061041e565b60405180910390f35b6100db6101b0565b005b60008060000180546100ee906104f7565b80601f016020809104026020016040519081016040528092919081815260200182805461011a906104f7565b80156101675780601f1061013c57610100808354040283529160200191610167565b820191906000526020600020905b81548152906001019060200180831161014a57829003601f168201915b5050505050908060010154905082565b8160008001908051906020019061018f929190610208565b50806000600101819055505050565b60025481565b60008060010154905090565b6101b861028e565b60405180604001604052806040518060400160405280600481526020017f746f7931000000000000000000000000000000000000000000000000000000008152508152602001600a815250905050565b828054610214906104f7565b90600052602060002090601f016020900481019282610236576000855561027d565b82601f1061024f57805160ff191683800117855561027d565b8280016001018555821561027d579182015b8281111561027c578251825591602001919060010190610261565b5b50905061028a91906102a8565b5090565b604051806040016040528060608152602001600081525090565b5b808211156102c15760008160009055506001016102a9565b5090565b60006102d86102d38461045e565b610439565b9050828152602081018484840111156102f4576102f36105bd565b5b6102ff8482856104b5565b509392505050565b600082601f83011261031c5761031b6105b8565b5b813561032c8482602086016102c5565b91505092915050565b600081359050610344816105dd565b92915050565b60008060408385031215610361576103606105c7565b5b600083013567ffffffffffffffff81111561037f5761037e6105c2565b5b61038b85828601610307565b925050602061039c85828601610335565b9150509250929050565b60006103b18261048f565b6103bb818561049a565b93506103cb8185602086016104c4565b6103d4816105cc565b840191505092915050565b6103e8816104ab565b82525050565b6000604082019050818103600083015261040881856103a6565b905061041760208301846103df565b9392505050565b600060208201905061043360008301846103df565b92915050565b6000610443610454565b905061044f8282610529565b919050565b6000604051905090565b600067ffffffffffffffff82111561047957610478610589565b5b610482826105cc565b9050602081019050919050565b600081519050919050565b600082825260208201905092915050565b6000819050919050565b82818337600083830152505050565b60005b838110156104e25780820151818401526020810190506104c7565b838111156104f1576000848401525b50505050565b6000600282049050600182168061050f57607f821691505b602082108114156105235761052261055a565b5b50919050565b610532826105cc565b810181811067ffffffffffffffff8211171561055157610550610589565b5b80604052505050565b7f4e487b7100000000000000000000000000000000000000000000000000000000600052602260045260246000fd5b7f4e487b7100000000000000000000000000000000000000000000000000000000600052604160045260246000fd5b600080fd5b600080fd5b600080fd5b600080fd5b6000601f19601f8301169050919050565b6105e6816104ab565b81146105f157600080fd5b5056fea2646970667358221220db43f9177b63b13a16145ebd6b46f9ff174e4ac28e2e8f2ce4c1e9174ef5aaba64736f6c63430008060033",
			"opcodes": "PUSH1 0x80 PUSH1 0x40 MSTORE CALLVALUE DUP1 ISZERO PUSH2 0x10 JUMPI PUSH1 0x0 DUP1 REVERT JUMPDEST POP PUSH2 0x3E8 PUSH1 0x2 DUP2 SWAP1 SSTORE POP PUSH2 0x62A DUP1 PUSH2 0x29 PUSH1 0x0 CODECOPY PUSH1 0x0 RETURN INVALID PUSH1 0x80 PUSH1 0x40 MSTORE CALLVALUE DUP1 ISZERO PUSH2 0x10 JUMPI PUSH1 0x0 DUP1 REVERT JUMPDEST POP PUSH1 0x4 CALLDATASIZE LT PUSH2 0x57 JUMPI PUSH1 0x0 CALLDATALOAD PUSH1 0xE0 SHR DUP1 PUSH4 0x20E6984A EQ PUSH2 0x5C JUMPI DUP1 PUSH4 0x216DBCAF EQ PUSH2 0x7B JUMPI DUP1 PUSH4 0x40B2B8EA EQ PUSH2 0x97 JUMPI DUP1 PUSH4 0x512C009A EQ PUSH2 0xB5 JUMPI DUP1 PUSH4 0x80145671 EQ PUSH2 0xD3 JUMPI JUMPDEST PUSH1 0x0 DUP1 REVERT JUMPDEST PUSH2 0x64 PUSH2 0xDD JUMP JUMPDEST PUSH1 0x40 MLOAD PUSH2 0x72 SWAP3 SWAP2 SWAP1 PUSH2 0x3EE JUMP JUMPDEST PUSH1 0x40 MLOAD DUP1 SWAP2 SUB SWAP1 RETURN JUMPDEST PUSH2 0x95 PUSH1 0x4 DUP1 CALLDATASIZE SUB DUP2 ADD SWAP1 PUSH2 0x90 SWAP2 SWAP1 PUSH2 0x34A JUMP JUMPDEST PUSH2 0x177 JUMP JUMPDEST STOP JUMPDEST PUSH2 0x9F PUSH2 0x19E JUMP JUMPDEST PUSH1 0x40 MLOAD PUSH2 0xAC SWAP2 SWAP1 PUSH2 0x41E JUMP JUMPDEST PUSH1 0x40 MLOAD DUP1 SWAP2 SUB SWAP1 RETURN JUMPDEST PUSH2 0xBD PUSH2 0x1A4 JUMP JUMPDEST PUSH1 0x40 MLOAD PUSH2 0xCA SWAP2 SWAP1 PUSH2 0x41E JUMP JUMPDEST PUSH1 0x40 MLOAD DUP1 SWAP2 SUB SWAP1 RETURN JUMPDEST PUSH2 0xDB PUSH2 0x1B0 JUMP JUMPDEST STOP JUMPDEST PUSH1 0x0 DUP1 PUSH1 0x0 ADD DUP1 SLOAD PUSH2 0xEE SWAP1 PUSH2 0x4F7 JUMP JUMPDEST DUP1 PUSH1 0x1F ADD PUSH1 0x20 DUP1 SWAP2 DIV MUL PUSH1 0x20 ADD PUSH1 0x40 MLOAD SWAP1 DUP2 ADD PUSH1 0x40 MSTORE DUP1 SWAP3 SWAP2 SWAP1 DUP2 DUP2 MSTORE PUSH1 0x20 ADD DUP3 DUP1 SLOAD PUSH2 0x11A SWAP1 PUSH2 0x4F7 JUMP JUMPDEST DUP1 ISZERO PUSH2 0x167 JUMPI DUP1 PUSH1 0x1F LT PUSH2 0x13C JUMPI PUSH2 0x100 DUP1 DUP4 SLOAD DIV MUL DUP4 MSTORE SWAP2 PUSH1 0x20 ADD SWAP2 PUSH2 0x167 JUMP JUMPDEST DUP3 ADD SWAP2 SWAP1 PUSH1 0x0 MSTORE PUSH1 0x20 PUSH1 0x0 KECCAK256 SWAP1 JUMPDEST DUP2 SLOAD DUP2 MSTORE SWAP1 PUSH1 0x1 ADD SWAP1 PUSH1 0x20 ADD DUP1 DUP4 GT PUSH2 0x14A JUMPI DUP3 SWAP1 SUB PUSH1 0x1F AND DUP3 ADD SWAP2 JUMPDEST POP POP POP POP POP SWAP1 DUP1 PUSH1 0x1 ADD SLOAD SWAP1 POP DUP3 JUMP JUMPDEST DUP2 PUSH1 0x0 DUP1 ADD SWAP1 DUP1 MLOAD SWAP1 PUSH1 0x20 ADD SWAP1 PUSH2 0x18F SWAP3 SWAP2 SWAP1 PUSH2 0x208 JUMP JUMPDEST POP DUP1 PUSH1 0x0 PUSH1 0x1 ADD DUP2 SWAP1 SSTORE POP POP POP JUMP JUMPDEST PUSH1 0x2 SLOAD DUP2 JUMP JUMPDEST PUSH1 0x0 DUP1 PUSH1 0x1 ADD SLOAD SWAP1 POP SWAP1 JUMP JUMPDEST PUSH2 0x1B8 PUSH2 0x28E JUMP JUMPDEST PUSH1 0x40 MLOAD DUP1 PUSH1 0x40 ADD PUSH1 0x40 MSTORE DUP1 PUSH1 0x40 MLOAD DUP1 PUSH1 0x40 ADD PUSH1 0x40 MSTORE DUP1 PUSH1 0x4 DUP2 MSTORE PUSH1 0x20 ADD PUSH32 0x746F793100000000000000000000000000000000000000000000000000000000 DUP2 MSTORE POP DUP2 MSTORE PUSH1 0x20 ADD PUSH1 0xA DUP2 MSTORE POP SWAP1 POP POP JUMP JUMPDEST DUP3 DUP1 SLOAD PUSH2 0x214 SWAP1 PUSH2 0x4F7 JUMP JUMPDEST SWAP1 PUSH1 0x0 MSTORE PUSH1 0x20 PUSH1 0x0 KECCAK256 SWAP1 PUSH1 0x1F ADD PUSH1 0x20 SWAP1 DIV DUP2 ADD SWAP3 DUP3 PUSH2 0x236 JUMPI PUSH1 0x0 DUP6 SSTORE PUSH2 0x27D JUMP JUMPDEST DUP3 PUSH1 0x1F LT PUSH2 0x24F JUMPI DUP1 MLOAD PUSH1 0xFF NOT AND DUP4 DUP1 ADD OR DUP6 SSTORE PUSH2 0x27D JUMP JUMPDEST DUP3 DUP1 ADD PUSH1 0x1 ADD DUP6 SSTORE DUP3 ISZERO PUSH2 0x27D JUMPI SWAP2 DUP3 ADD JUMPDEST DUP3 DUP2 GT ISZERO PUSH2 0x27C JUMPI DUP3 MLOAD DUP3 SSTORE SWAP2 PUSH1 0x20 ADD SWAP2 SWAP1 PUSH1 0x1 ADD SWAP1 PUSH2 0x261 JUMP JUMPDEST JUMPDEST POP SWAP1 POP PUSH2 0x28A SWAP2 SWAP1 PUSH2 0x2A8 JUMP JUMPDEST POP SWAP1 JUMP JUMPDEST PUSH1 0x40 MLOAD DUP1 PUSH1 0x40 ADD PUSH1 0x40 MSTORE DUP1 PUSH1 0x60 DUP2 MSTORE PUSH1 0x20 ADD PUSH1 0x0 DUP2 MSTORE POP SWAP1 JUMP JUMPDEST JUMPDEST DUP1 DUP3 GT ISZERO PUSH2 0x2C1 JUMPI PUSH1 0x0 DUP2 PUSH1 0x0 SWAP1 SSTORE POP PUSH1 0x1 ADD PUSH2 0x2A9 JUMP JUMPDEST POP SWAP1 JUMP JUMPDEST PUSH1 0x0 PUSH2 0x2D8 PUSH2 0x2D3 DUP5 PUSH2 0x45E JUMP JUMPDEST PUSH2 0x439 JUMP JUMPDEST SWAP1 POP DUP3 DUP2 MSTORE PUSH1 0x20 DUP2 ADD DUP5 DUP5 DUP5 ADD GT ISZERO PUSH2 0x2F4 JUMPI PUSH2 0x2F3 PUSH2 0x5BD JUMP JUMPDEST JUMPDEST PUSH2 0x2FF DUP5 DUP3 DUP6 PUSH2 0x4B5 JUMP JUMPDEST POP SWAP4 SWAP3 POP POP POP JUMP JUMPDEST PUSH1 0x0 DUP3 PUSH1 0x1F DUP4 ADD SLT PUSH2 0x31C JUMPI PUSH2 0x31B PUSH2 0x5B8 JUMP JUMPDEST JUMPDEST DUP2 CALLDATALOAD PUSH2 0x32C DUP5 DUP3 PUSH1 0x20 DUP7 ADD PUSH2 0x2C5 JUMP JUMPDEST SWAP2 POP POP SWAP3 SWAP2 POP POP JUMP JUMPDEST PUSH1 0x0 DUP2 CALLDATALOAD SWAP1 POP PUSH2 0x344 DUP2 PUSH2 0x5DD JUMP JUMPDEST SWAP3 SWAP2 POP POP JUMP JUMPDEST PUSH1 0x0 DUP1 PUSH1 0x40 DUP4 DUP6 SUB SLT ISZERO PUSH2 0x361 JUMPI PUSH2 0x360 PUSH2 0x5C7 JUMP JUMPDEST JUMPDEST PUSH1 0x0 DUP4 ADD CALLDATALOAD PUSH8 0xFFFFFFFFFFFFFFFF DUP2 GT ISZERO PUSH2 0x37F JUMPI PUSH2 0x37E PUSH2 0x5C2 JUMP JUMPDEST JUMPDEST PUSH2 0x38B DUP6 DUP3 DUP7 ADD PUSH2 0x307 JUMP JUMPDEST SWAP3 POP POP PUSH1 0x20 PUSH2 0x39C DUP6 DUP3 DUP7 ADD PUSH2 0x335 JUMP JUMPDEST SWAP2 POP POP SWAP3 POP SWAP3 SWAP1 POP JUMP JUMPDEST PUSH1 0x0 PUSH2 0x3B1 DUP3 PUSH2 0x48F JUMP JUMPDEST PUSH2 0x3BB DUP2 DUP6 PUSH2 0x49A JUMP JUMPDEST SWAP4 POP PUSH2 0x3CB DUP2 DUP6 PUSH1 0x20 DUP7 ADD PUSH2 0x4C4 JUMP JUMPDEST PUSH2 0x3D4 DUP2 PUSH2 0x5CC JUMP JUMPDEST DUP5 ADD SWAP2 POP POP SWAP3 SWAP2 POP POP JUMP JUMPDEST PUSH2 0x3E8 DUP2 PUSH2 0x4AB JUMP JUMPDEST DUP3 MSTORE POP POP JUMP JUMPDEST PUSH1 0x0 PUSH1 0x40 DUP3 ADD SWAP1 POP DUP2 DUP2 SUB PUSH1 0x0 DUP4 ADD MSTORE PUSH2 0x408 DUP2 DUP6 PUSH2 0x3A6 JUMP JUMPDEST SWAP1 POP PUSH2 0x417 PUSH1 0x20 DUP4 ADD DUP5 PUSH2 0x3DF JUMP JUMPDEST SWAP4 SWAP3 POP POP POP JUMP JUMPDEST PUSH1 0x0 PUSH1 0x20 DUP3 ADD SWAP1 POP PUSH2 0x433 PUSH1 0x0 DUP4 ADD DUP5 PUSH2 0x3DF JUMP JUMPDEST SWAP3 SWAP2 POP POP JUMP JUMPDEST PUSH1 0x0 PUSH2 0x443 PUSH2 0x454 JUMP JUMPDEST SWAP1 POP PUSH2 0x44F DUP3 DUP3 PUSH2 0x529 JUMP JUMPDEST SWAP2 SWAP1 POP JUMP JUMPDEST PUSH1 0x0 PUSH1 0x40 MLOAD SWAP1 POP SWAP1 JUMP JUMPDEST PUSH1 0x0 PUSH8 0xFFFFFFFFFFFFFFFF DUP3 GT ISZERO PUSH2 0x479 JUMPI PUSH2 0x478 PUSH2 0x589 JUMP JUMPDEST JUMPDEST PUSH2 0x482 DUP3 PUSH2 0x5CC JUMP JUMPDEST SWAP1 POP PUSH1 0x20 DUP2 ADD SWAP1 POP SWAP2 SWAP1 POP JUMP JUMPDEST PUSH1 0x0 DUP2 MLOAD SWAP1 POP SWAP2 SWAP1 POP JUMP JUMPDEST PUSH1 0x0 DUP3 DUP3 MSTORE PUSH1 0x20 DUP3 ADD SWAP1 POP SWAP3 SWAP2 POP POP JUMP JUMPDEST PUSH1 0x0 DUP2 SWAP1 POP SWAP2 SWAP1 POP JUMP JUMPDEST DUP3 DUP2 DUP4 CALLDATACOPY PUSH1 0x0 DUP4 DUP4 ADD MSTORE POP POP POP JUMP JUMPDEST PUSH1 0x0 JUMPDEST DUP4 DUP2 LT ISZERO PUSH2 0x4E2 JUMPI DUP1 DUP3 ADD MLOAD DUP2 DUP5 ADD MSTORE PUSH1 0x20 DUP2 ADD SWAP1 POP PUSH2 0x4C7 JUMP JUMPDEST DUP4 DUP2 GT ISZERO PUSH2 0x4F1 JUMPI PUSH1 0x0 DUP5 DUP5 ADD MSTORE JUMPDEST POP POP POP POP JUMP JUMPDEST PUSH1 0x0 PUSH1 0x2 DUP3 DIV SWAP1 POP PUSH1 0x1 DUP3 AND DUP1 PUSH2 0x50F JUMPI PUSH1 0x7F DUP3 AND SWAP2 POP JUMPDEST PUSH1 0x20 DUP3 LT DUP2 EQ ISZERO PUSH2 0x523 JUMPI PUSH2 0x522 PUSH2 0x55A JUMP JUMPDEST JUMPDEST POP SWAP2 SWAP1 POP JUMP JUMPDEST PUSH2 0x532 DUP3 PUSH2 0x5CC JUMP JUMPDEST DUP2 ADD DUP2 DUP2 LT PUSH8 0xFFFFFFFFFFFFFFFF DUP3 GT OR ISZERO PUSH2 0x551 JUMPI PUSH2 0x550 PUSH2 0x589 JUMP JUMPDEST JUMPDEST DUP1 PUSH1 0x40 MSTORE POP POP POP JUMP JUMPDEST PUSH32 0x4E487B7100000000000000000000000000000000000000000000000000000000 PUSH1 0x0 MSTORE PUSH1 0x22 PUSH1 0x4 MSTORE PUSH1 0x24 PUSH1 0x0 REVERT JUMPDEST PUSH32 0x4E487B7100000000000000000000000000000000000000000000000000000000 PUSH1 0x0 MSTORE PUSH1 0x41 PUSH1 0x4 MSTORE PUSH1 0x24 PUSH1 0x0 REVERT JUMPDEST PUSH1 0x0 DUP1 REVERT JUMPDEST PUSH1 0x0 DUP1 REVERT JUMPDEST PUSH1 0x0 DUP1 REVERT JUMPDEST PUSH1 0x0 DUP1 REVERT JUMPDEST PUSH1 0x0 PUSH1 0x1F NOT PUSH1 0x1F DUP4 ADD AND SWAP1 POP SWAP2 SWAP1 POP JUMP JUMPDEST PUSH2 0x5E6 DUP2 PUSH2 0x4AB JUMP JUMPDEST DUP2 EQ PUSH2 0x5F1 JUMPI PUSH1 0x0 DUP1 REVERT JUMPDEST POP JUMP INVALID LOG2 PUSH5 0x6970667358 0x22 SLT KECCAK256 0xDB NUMBER 0xF9 OR PUSH28 0x63B13A16145EBD6B46F9FF174E4AC28E2E8F2CE4C1E9174EF5AABA64 PUSH20 0x6F6C634300080600330000000000000000000000 "
		},
		"gasEstimates": {
			"creation": {
				"codeDepositCost": "315600",
				"executionCost": "22469",
				"totalCost": "338069"
			},
			"external": {
				"getMainProduct()": "2487",
				"initProduct()": "412",
				"mainProduct()": "infinite",
				"maxProductCount()": "2451",
				"setMainProduct(string,uint256)": "infinite"
			}
		},
		"methodIdentifiers": {
			"getMainProduct()": "512c009a",
			"initProduct()": "80145671",
			"mainProduct()": "20e6984a",
			"maxProductCount()": "40b2b8ea",
			"setMainProduct(string,uint256)": "216dbcaf"
		}
	},
	"abi": [
		{
			"inputs": [],
			"stateMutability": "nonpayable",
			"type": "constructor"
		},
		{
			"inputs": [],
			"name": "getMainProduct",
			"outputs": [
				{
					"internalType": "uint256",
					"name": "",
					"type": "uint256"
				}
			],
			"stateMutability": "view",
			"type": "function"
		},
		{
			"inputs": [],
			"name": "initProduct",
			"outputs": [],
			"stateMutability": "nonpayable",
			"type": "function"
		},
		{
			"inputs": [],
			"name": "mainProduct",
			"outputs": [
				{
					"internalType": "string",
					"name": "name",
					"type": "string"
				},
				{
					"internalType": "uint256",
					"name": "price",
					"type": "uint256"
				}
			],
			"stateMutability": "view",
			"type": "function"
		},
		{
			"inputs": [],
			"name": "maxProductCount",
			"outputs": [
				{
					"internalType": "uint256",
					"name": "",
					"type": "uint256"
				}
			],
			"stateMutability": "view",
			"type": "function"
		},
		{
			"inputs": [
				{
					"internalType": "string",
					"name": "_name",
					"type": "string"
				},
				{
					"internalType": "uint256",
					"name": "_price",
					"type": "uint256"
				}
			],
			"name": "setMainProduct",
			"outputs": [],
			"stateMutability": "nonpayable",
			"type": "function"
		}
	]
}