{
	"data": {
		"bytecode": {
			"linkReferences": {},
			"object": "608060405234801561001057600080fd5b506102b9806100206000396000f3fe608060405234801561001057600080fd5b50600436106100415760003560e01c8063372010d3146100465780634c99946314610064578063fc0e600814610082575b600080fd5b61004e6100a0565b60405161005b9190610178565b60405180910390f35b61006c6100de565b6040516100799190610178565b60405180910390f35b61008a610125565b6040516100979190610178565b60405180910390f35b600080600090506000600190505b6001826100bb9190610193565b915080806100c8906101e1565b915050600a81106100ae578160ff169250505090565b600080600090506000600190505b600b8160ff16101561011a576001826101059190610193565b915080806101129061022a565b9150506100ec565b8160ff169250505090565b600080600090506000600190505b600b81101561015e576001826101499190610193565b91508080610156906101e1565b915050610133565b508060ff1691505090565b610172816101ca565b82525050565b600060208201905061018d6000830184610169565b92915050565b600061019e826101d4565b91506101a9836101d4565b92508260ff038211156101bf576101be610254565b5b828201905092915050565b6000819050919050565b600060ff82169050919050565b60006101ec826101ca565b91507fffffffffffffffffffffffffffffffffffffffffffffffffffffffffffffffff82141561021f5761021e610254565b5b600182019050919050565b6000610235826101d4565b915060ff82141561024957610248610254565b5b600182019050919050565b7f4e487b7100000000000000000000000000000000000000000000000000000000600052601160045260246000fdfea2646970667358221220b10af28b94290e2168c832bc30ead0cbb851ff4600dc23f108ce28a8a04d3db464736f6c63430008060033",
			"opcodes": "PUSH1 0x80 PUSH1 0x40 MSTORE CALLVALUE DUP1 ISZERO PUSH2 0x10 JUMPI PUSH1 0x0 DUP1 REVERT JUMPDEST POP PUSH2 0x2B9 DUP1 PUSH2 0x20 PUSH1 0x0 CODECOPY PUSH1 0x0 RETURN INVALID PUSH1 0x80 PUSH1 0x40 MSTORE CALLVALUE DUP1 ISZERO PUSH2 0x10 JUMPI PUSH1 0x0 DUP1 REVERT JUMPDEST POP PUSH1 0x4 CALLDATASIZE LT PUSH2 0x41 JUMPI PUSH1 0x0 CALLDATALOAD PUSH1 0xE0 SHR DUP1 PUSH4 0x372010D3 EQ PUSH2 0x46 JUMPI DUP1 PUSH4 0x4C999463 EQ PUSH2 0x64 JUMPI DUP1 PUSH4 0xFC0E6008 EQ PUSH2 0x82 JUMPI JUMPDEST PUSH1 0x0 DUP1 REVERT JUMPDEST PUSH2 0x4E PUSH2 0xA0 JUMP JUMPDEST PUSH1 0x40 MLOAD PUSH2 0x5B SWAP2 SWAP1 PUSH2 0x178 JUMP JUMPDEST PUSH1 0x40 MLOAD DUP1 SWAP2 SUB SWAP1 RETURN JUMPDEST PUSH2 0x6C PUSH2 0xDE JUMP JUMPDEST PUSH1 0x40 MLOAD PUSH2 0x79 SWAP2 SWAP1 PUSH2 0x178 JUMP JUMPDEST PUSH1 0x40 MLOAD DUP1 SWAP2 SUB SWAP1 RETURN JUMPDEST PUSH2 0x8A PUSH2 0x125 JUMP JUMPDEST PUSH1 0x40 MLOAD PUSH2 0x97 SWAP2 SWAP1 PUSH2 0x178 JUMP JUMPDEST PUSH1 0x40 MLOAD DUP1 SWAP2 SUB SWAP1 RETURN JUMPDEST PUSH1 0x0 DUP1 PUSH1 0x0 SWAP1 POP PUSH1 0x0 PUSH1 0x1 SWAP1 POP JUMPDEST PUSH1 0x1 DUP3 PUSH2 0xBB SWAP2 SWAP1 PUSH2 0x193 JUMP JUMPDEST SWAP2 POP DUP1 DUP1 PUSH2 0xC8 SWAP1 PUSH2 0x1E1 JUMP JUMPDEST SWAP2 POP POP PUSH1 0xA DUP2 LT PUSH2 0xAE JUMPI DUP2 PUSH1 0xFF AND SWAP3 POP POP POP SWAP1 JUMP JUMPDEST PUSH1 0x0 DUP1 PUSH1 0x0 SWAP1 POP PUSH1 0x0 PUSH1 0x1 SWAP1 POP JUMPDEST PUSH1 0xB DUP2 PUSH1 0xFF AND LT ISZERO PUSH2 0x11A JUMPI PUSH1 0x1 DUP3 PUSH2 0x105 SWAP2 SWAP1 PUSH2 0x193 JUMP JUMPDEST SWAP2 POP DUP1 DUP1 PUSH2 0x112 SWAP1 PUSH2 0x22A JUMP JUMPDEST SWAP2 POP POP PUSH2 0xEC JUMP JUMPDEST DUP2 PUSH1 0xFF AND SWAP3 POP POP POP SWAP1 JUMP JUMPDEST PUSH1 0x0 DUP1 PUSH1 0x0 SWAP1 POP PUSH1 0x0 PUSH1 0x1 SWAP1 POP JUMPDEST PUSH1 0xB DUP2 LT ISZERO PUSH2 0x15E JUMPI PUSH1 0x1 DUP3 PUSH2 0x149 SWAP2 SWAP1 PUSH2 0x193 JUMP JUMPDEST SWAP2 POP DUP1 DUP1 PUSH2 0x156 SWAP1 PUSH2 0x1E1 JUMP JUMPDEST SWAP2 POP POP PUSH2 0x133 JUMP JUMPDEST POP DUP1 PUSH1 0xFF AND SWAP2 POP POP SWAP1 JUMP JUMPDEST PUSH2 0x172 DUP2 PUSH2 0x1CA JUMP JUMPDEST DUP3 MSTORE POP POP JUMP JUMPDEST PUSH1 0x0 PUSH1 0x20 DUP3 ADD SWAP1 POP PUSH2 0x18D PUSH1 0x0 DUP4 ADD DUP5 PUSH2 0x169 JUMP JUMPDEST SWAP3 SWAP2 POP POP JUMP JUMPDEST PUSH1 0x0 PUSH2 0x19E DUP3 PUSH2 0x1D4 JUMP JUMPDEST SWAP2 POP PUSH2 0x1A9 DUP4 PUSH2 0x1D4 JUMP JUMPDEST SWAP3 POP DUP3 PUSH1 0xFF SUB DUP3 GT ISZERO PUSH2 0x1BF JUMPI PUSH2 0x1BE PUSH2 0x254 JUMP JUMPDEST JUMPDEST DUP3 DUP3 ADD SWAP1 POP SWAP3 SWAP2 POP POP JUMP JUMPDEST PUSH1 0x0 DUP2 SWAP1 POP SWAP2 SWAP1 POP JUMP JUMPDEST PUSH1 0x0 PUSH1 0xFF DUP3 AND SWAP1 POP SWAP2 SWAP1 POP JUMP JUMPDEST PUSH1 0x0 PUSH2 0x1EC DUP3 PUSH2 0x1CA JUMP JUMPDEST SWAP2 POP PUSH32 0xFFFFFFFFFFFFFFFFFFFFFFFFFFFFFFFFFFFFFFFFFFFFFFFFFFFFFFFFFFFFFFFF DUP3 EQ ISZERO PUSH2 0x21F JUMPI PUSH2 0x21E PUSH2 0x254 JUMP JUMPDEST JUMPDEST PUSH1 0x1 DUP3 ADD SWAP1 POP SWAP2 SWAP1 POP JUMP JUMPDEST PUSH1 0x0 PUSH2 0x235 DUP3 PUSH2 0x1D4 JUMP JUMPDEST SWAP2 POP PUSH1 0xFF DUP3 EQ ISZERO PUSH2 0x249 JUMPI PUSH2 0x248 PUSH2 0x254 JUMP JUMPDEST JUMPDEST PUSH1 0x1 DUP3 ADD SWAP1 POP SWAP2 SWAP1 POP JUMP JUMPDEST PUSH32 0x4E487B7100000000000000000000000000000000000000000000000000000000 PUSH1 0x0 MSTORE PUSH1 0x11 PUSH1 0x4 MSTORE PUSH1 0x24 PUSH1 0x0 REVERT INVALID LOG2 PUSH5 0x6970667358 0x22 SLT KECCAK256 0xB1 EXP CALLCODE DUP12 SWAP5 0x29 0xE 0x21 PUSH9 0xC832BC30EAD0CBB851 SELFDESTRUCT CHAINID STOP 0xDC 0x23 CALL ADDMOD 0xCE 0x28 0xA8 LOG0 0x4D RETURNDATASIZE 0xB4 PUSH5 0x736F6C6343 STOP ADDMOD MOD STOP CALLER "
		},
		"gasEstimates": {
			"creation": {
				"codeDepositCost": "139400",
				"executionCost": "183",
				"totalCost": "139583"
			},
			"external": {
				"dowileloop()": "infinite",
				"forLoop()": "infinite",
				"whileloop()": "infinite"
			}
		},
		"methodIdentifiers": {
			"dowileloop()": "372010d3",
			"forLoop()": "fc0e6008",
			"whileloop()": "4c999463"
		}
	},
	"abi": [
		{
			"inputs": [],
			"name": "dowileloop",
			"outputs": [
				{
					"internalType": "uint256",
					"name": "",
					"type": "uint256"
				}
			],
			"stateMutability": "pure",
			"type": "function"
		},
		{
			"inputs": [],
			"name": "forLoop",
			"outputs": [
				{
					"internalType": "uint256",
					"name": "",
					"type": "uint256"
				}
			],
			"stateMutability": "pure",
			"type": "function"
		},
		{
			"inputs": [],
			"name": "whileloop",
			"outputs": [
				{
					"internalType": "uint256",
					"name": "",
					"type": "uint256"
				}
			],
			"stateMutability": "pure",
			"type": "function"
		}
	]
}