{
	"data": {
		"bytecode": {
			"linkReferences": {},
			"object": "608060405234801561001057600080fd5b506040516200084a3803806200084a8339818101604052810190610034919061028f565b73851c312f78d02d53ccd036a37858af1f6ae07c386040518060400160405280600381526020017f53555600000000000000000000000000000000000000000000000000000000008152506004600a8260009080519060200190610099929190610167565b5081600160006101000a81548160ff021916908360ff1602179055508060028190555050505080600360006101000a81548173ffffffffffffffffffffffffffffffffffffffff021916908373ffffffffffffffffffffffffffffffffffffffff160217905550508160059080519060200190610117929190610167565b5033600660006101000a81548173ffffffffffffffffffffffffffffffffffffffff021916908373ffffffffffffffffffffffffffffffffffffffff16021790555080600781905550505061047b565b8280546101739061037e565b90600052602060002090601f01602090048101928261019557600085556101dc565b82601f106101ae57805160ff19168380011785556101dc565b828001600101855582156101dc579182015b828111156101db5782518255916020019190600101906101c0565b5b5090506101e991906101ed565b5090565b5b808211156102065760008160009055506001016101ee565b5090565b600061021d61021884610310565b6102eb565b90508281526020810184848401111561023957610238610444565b5b61024484828561034b565b509392505050565b600082601f8301126102615761026061043f565b5b815161027184826020860161020a565b91505092915050565b60008151905061028981610464565b92915050565b600080604083850312156102a6576102a561044e565b5b600083015167ffffffffffffffff8111156102c4576102c3610449565b5b6102d08582860161024c565b92505060206102e18582860161027a565b9150509250929050565b60006102f5610306565b905061030182826103b0565b919050565b6000604051905090565b600067ffffffffffffffff82111561032b5761032a610410565b5b61033482610453565b9050602081019050919050565b6000819050919050565b60005b8381101561036957808201518184015260208101905061034e565b83811115610378576000848401525b50505050565b6000600282049050600182168061039657607f821691505b602082108114156103aa576103a96103e1565b5b50919050565b6103b982610453565b810181811067ffffffffffffffff821117156103d8576103d7610410565b5b80604052505050565b7f4e487b7100000000000000000000000000000000000000000000000000000000600052602260045260246000fd5b7f4e487b7100000000000000000000000000000000000000000000000000000000600052604160045260246000fd5b600080fd5b600080fd5b600080fd5b600080fd5b6000601f19601f8301169050919050565b61046d81610341565b811461047857600080fd5b50565b6103bf806200048b6000396000f3fe608060405234801561001057600080fd5b506004361061004c5760003560e01c806319e6f3a51461005157806398d5fdca1461006f578063a0bfa1e01461008d578063dbd0e1b6146100ab575b600080fd5b6100596100c9565b6040516100669190610264565b60405180910390f35b6100776100e0565b6040516100849190610249565b60405180910390f35b6100956100ea565b6040516100a29190610227565b60405180910390f35b6100b361017c565b6040516100c0919061020c565b60405180910390f35b6000600160009054906101000a900460ff16905090565b6000600754905090565b6060600580546100f990610317565b80601f016020809104026020016040519081016040528092919081815260200182805461012590610317565b80156101725780601f1061014757610100808354040283529160200191610172565b820191906000526020600020905b81548152906001019060200180831161015557829003601f168201915b5050505050905090565b6000600360009054906101000a900473ffffffffffffffffffffffffffffffffffffffff16905090565b6101af8161029b565b82525050565b60006101c08261027f565b6101ca818561028a565b93506101da8185602086016102e4565b6101e381610378565b840191505092915050565b6101f7816102cd565b82525050565b610206816102d7565b82525050565b600060208201905061022160008301846101a6565b92915050565b6000602082019050818103600083015261024181846101b5565b905092915050565b600060208201905061025e60008301846101ee565b92915050565b600060208201905061027960008301846101fd565b92915050565b600081519050919050565b600082825260208201905092915050565b60006102a6826102ad565b9050919050565b600073ffffffffffffffffffffffffffffffffffffffff82169050919050565b6000819050919050565b600060ff82169050919050565b60005b838110156103025780820151818401526020810190506102e7565b83811115610311576000848401525b50505050565b6000600282049050600182168061032f57607f821691505b6020821081141561034357610342610349565b5b50919050565b7f4e487b7100000000000000000000000000000000000000000000000000000000600052602260045260246000fd5b6000601f19601f830116905091905056fea26469706673582212209e5ea194fe4bdffaae7451060d11cccda3b78a4e2dd5e9d4129a06756dd5da6c64736f6c63430008060033",
			"opcodes": "PUSH1 0x80 PUSH1 0x40 MSTORE CALLVALUE DUP1 ISZERO PUSH2 0x10 JUMPI PUSH1 0x0 DUP1 REVERT JUMPDEST POP PUSH1 0x40 MLOAD PUSH3 0x84A CODESIZE SUB DUP1 PUSH3 0x84A DUP4 CODECOPY DUP2 DUP2 ADD PUSH1 0x40 MSTORE DUP2 ADD SWAP1 PUSH2 0x34 SWAP2 SWAP1 PUSH2 0x28F JUMP JUMPDEST PUSH20 0x851C312F78D02D53CCD036A37858AF1F6AE07C38 PUSH1 0x40 MLOAD DUP1 PUSH1 0x40 ADD PUSH1 0x40 MSTORE DUP1 PUSH1 0x3 DUP2 MSTORE PUSH1 0x20 ADD PUSH32 0x5355560000000000000000000000000000000000000000000000000000000000 DUP2 MSTORE POP PUSH1 0x4 PUSH1 0xA DUP3 PUSH1 0x0 SWAP1 DUP1 MLOAD SWAP1 PUSH1 0x20 ADD SWAP1 PUSH2 0x99 SWAP3 SWAP2 SWAP1 PUSH2 0x167 JUMP JUMPDEST POP DUP2 PUSH1 0x1 PUSH1 0x0 PUSH2 0x100 EXP DUP2 SLOAD DUP2 PUSH1 0xFF MUL NOT AND SWAP1 DUP4 PUSH1 0xFF AND MUL OR SWAP1 SSTORE POP DUP1 PUSH1 0x2 DUP2 SWAP1 SSTORE POP POP POP POP DUP1 PUSH1 0x3 PUSH1 0x0 PUSH2 0x100 EXP DUP2 SLOAD DUP2 PUSH20 0xFFFFFFFFFFFFFFFFFFFFFFFFFFFFFFFFFFFFFFFF MUL NOT AND SWAP1 DUP4 PUSH20 0xFFFFFFFFFFFFFFFFFFFFFFFFFFFFFFFFFFFFFFFF AND MUL OR SWAP1 SSTORE POP POP DUP2 PUSH1 0x5 SWAP1 DUP1 MLOAD SWAP1 PUSH1 0x20 ADD SWAP1 PUSH2 0x117 SWAP3 SWAP2 SWAP1 PUSH2 0x167 JUMP JUMPDEST POP CALLER PUSH1 0x6 PUSH1 0x0 PUSH2 0x100 EXP DUP2 SLOAD DUP2 PUSH20 0xFFFFFFFFFFFFFFFFFFFFFFFFFFFFFFFFFFFFFFFF MUL NOT AND SWAP1 DUP4 PUSH20 0xFFFFFFFFFFFFFFFFFFFFFFFFFFFFFFFFFFFFFFFF AND MUL OR SWAP1 SSTORE POP DUP1 PUSH1 0x7 DUP2 SWAP1 SSTORE POP POP POP PUSH2 0x47B JUMP JUMPDEST DUP3 DUP1 SLOAD PUSH2 0x173 SWAP1 PUSH2 0x37E JUMP JUMPDEST SWAP1 PUSH1 0x0 MSTORE PUSH1 0x20 PUSH1 0x0 KECCAK256 SWAP1 PUSH1 0x1F ADD PUSH1 0x20 SWAP1 DIV DUP2 ADD SWAP3 DUP3 PUSH2 0x195 JUMPI PUSH1 0x0 DUP6 SSTORE PUSH2 0x1DC JUMP JUMPDEST DUP3 PUSH1 0x1F LT PUSH2 0x1AE JUMPI DUP1 MLOAD PUSH1 0xFF NOT AND DUP4 DUP1 ADD OR DUP6 SSTORE PUSH2 0x1DC JUMP JUMPDEST DUP3 DUP1 ADD PUSH1 0x1 ADD DUP6 SSTORE DUP3 ISZERO PUSH2 0x1DC JUMPI SWAP2 DUP3 ADD JUMPDEST DUP3 DUP2 GT ISZERO PUSH2 0x1DB JUMPI DUP3 MLOAD DUP3 SSTORE SWAP2 PUSH1 0x20 ADD SWAP2 SWAP1 PUSH1 0x1 ADD SWAP1 PUSH2 0x1C0 JUMP JUMPDEST JUMPDEST POP SWAP1 POP PUSH2 0x1E9 SWAP2 SWAP1 PUSH2 0x1ED JUMP JUMPDEST POP SWAP1 JUMP JUMPDEST JUMPDEST DUP1 DUP3 GT ISZERO PUSH2 0x206 JUMPI PUSH1 0x0 DUP2 PUSH1 0x0 SWAP1 SSTORE POP PUSH1 0x1 ADD PUSH2 0x1EE JUMP JUMPDEST POP SWAP1 JUMP JUMPDEST PUSH1 0x0 PUSH2 0x21D PUSH2 0x218 DUP5 PUSH2 0x310 JUMP JUMPDEST PUSH2 0x2EB JUMP JUMPDEST SWAP1 POP DUP3 DUP2 MSTORE PUSH1 0x20 DUP2 ADD DUP5 DUP5 DUP5 ADD GT ISZERO PUSH2 0x239 JUMPI PUSH2 0x238 PUSH2 0x444 JUMP JUMPDEST JUMPDEST PUSH2 0x244 DUP5 DUP3 DUP6 PUSH2 0x34B JUMP JUMPDEST POP SWAP4 SWAP3 POP POP POP JUMP JUMPDEST PUSH1 0x0 DUP3 PUSH1 0x1F DUP4 ADD SLT PUSH2 0x261 JUMPI PUSH2 0x260 PUSH2 0x43F JUMP JUMPDEST JUMPDEST DUP2 MLOAD PUSH2 0x271 DUP5 DUP3 PUSH1 0x20 DUP7 ADD PUSH2 0x20A JUMP JUMPDEST SWAP2 POP POP SWAP3 SWAP2 POP POP JUMP JUMPDEST PUSH1 0x0 DUP2 MLOAD SWAP1 POP PUSH2 0x289 DUP2 PUSH2 0x464 JUMP JUMPDEST SWAP3 SWAP2 POP POP JUMP JUMPDEST PUSH1 0x0 DUP1 PUSH1 0x40 DUP4 DUP6 SUB SLT ISZERO PUSH2 0x2A6 JUMPI PUSH2 0x2A5 PUSH2 0x44E JUMP JUMPDEST JUMPDEST PUSH1 0x0 DUP4 ADD MLOAD PUSH8 0xFFFFFFFFFFFFFFFF DUP2 GT ISZERO PUSH2 0x2C4 JUMPI PUSH2 0x2C3 PUSH2 0x449 JUMP JUMPDEST JUMPDEST PUSH2 0x2D0 DUP6 DUP3 DUP7 ADD PUSH2 0x24C JUMP JUMPDEST SWAP3 POP POP PUSH1 0x20 PUSH2 0x2E1 DUP6 DUP3 DUP7 ADD PUSH2 0x27A JUMP JUMPDEST SWAP2 POP POP SWAP3 POP SWAP3 SWAP1 POP JUMP JUMPDEST PUSH1 0x0 PUSH2 0x2F5 PUSH2 0x306 JUMP JUMPDEST SWAP1 POP PUSH2 0x301 DUP3 DUP3 PUSH2 0x3B0 JUMP JUMPDEST SWAP2 SWAP1 POP JUMP JUMPDEST PUSH1 0x0 PUSH1 0x40 MLOAD SWAP1 POP SWAP1 JUMP JUMPDEST PUSH1 0x0 PUSH8 0xFFFFFFFFFFFFFFFF DUP3 GT ISZERO PUSH2 0x32B JUMPI PUSH2 0x32A PUSH2 0x410 JUMP JUMPDEST JUMPDEST PUSH2 0x334 DUP3 PUSH2 0x453 JUMP JUMPDEST SWAP1 POP PUSH1 0x20 DUP2 ADD SWAP1 POP SWAP2 SWAP1 POP JUMP JUMPDEST PUSH1 0x0 DUP2 SWAP1 POP SWAP2 SWAP1 POP JUMP JUMPDEST PUSH1 0x0 JUMPDEST DUP4 DUP2 LT ISZERO PUSH2 0x369 JUMPI DUP1 DUP3 ADD MLOAD DUP2 DUP5 ADD MSTORE PUSH1 0x20 DUP2 ADD SWAP1 POP PUSH2 0x34E JUMP JUMPDEST DUP4 DUP2 GT ISZERO PUSH2 0x378 JUMPI PUSH1 0x0 DUP5 DUP5 ADD MSTORE JUMPDEST POP POP POP POP JUMP JUMPDEST PUSH1 0x0 PUSH1 0x2 DUP3 DIV SWAP1 POP PUSH1 0x1 DUP3 AND DUP1 PUSH2 0x396 JUMPI PUSH1 0x7F DUP3 AND SWAP2 POP JUMPDEST PUSH1 0x20 DUP3 LT DUP2 EQ ISZERO PUSH2 0x3AA JUMPI PUSH2 0x3A9 PUSH2 0x3E1 JUMP JUMPDEST JUMPDEST POP SWAP2 SWAP1 POP JUMP JUMPDEST PUSH2 0x3B9 DUP3 PUSH2 0x453 JUMP JUMPDEST DUP2 ADD DUP2 DUP2 LT PUSH8 0xFFFFFFFFFFFFFFFF DUP3 GT OR ISZERO PUSH2 0x3D8 JUMPI PUSH2 0x3D7 PUSH2 0x410 JUMP JUMPDEST JUMPDEST DUP1 PUSH1 0x40 MSTORE POP POP POP JUMP JUMPDEST PUSH32 0x4E487B7100000000000000000000000000000000000000000000000000000000 PUSH1 0x0 MSTORE PUSH1 0x22 PUSH1 0x4 MSTORE PUSH1 0x24 PUSH1 0x0 REVERT JUMPDEST PUSH32 0x4E487B7100000000000000000000000000000000000000000000000000000000 PUSH1 0x0 MSTORE PUSH1 0x41 PUSH1 0x4 MSTORE PUSH1 0x24 PUSH1 0x0 REVERT JUMPDEST PUSH1 0x0 DUP1 REVERT JUMPDEST PUSH1 0x0 DUP1 REVERT JUMPDEST PUSH1 0x0 DUP1 REVERT JUMPDEST PUSH1 0x0 DUP1 REVERT JUMPDEST PUSH1 0x0 PUSH1 0x1F NOT PUSH1 0x1F DUP4 ADD AND SWAP1 POP SWAP2 SWAP1 POP JUMP JUMPDEST PUSH2 0x46D DUP2 PUSH2 0x341 JUMP JUMPDEST DUP2 EQ PUSH2 0x478 JUMPI PUSH1 0x0 DUP1 REVERT JUMPDEST POP JUMP JUMPDEST PUSH2 0x3BF DUP1 PUSH3 0x48B PUSH1 0x0 CODECOPY PUSH1 0x0 RETURN INVALID PUSH1 0x80 PUSH1 0x40 MSTORE CALLVALUE DUP1 ISZERO PUSH2 0x10 JUMPI PUSH1 0x0 DUP1 REVERT JUMPDEST POP PUSH1 0x4 CALLDATASIZE LT PUSH2 0x4C JUMPI PUSH1 0x0 CALLDATALOAD PUSH1 0xE0 SHR DUP1 PUSH4 0x19E6F3A5 EQ PUSH2 0x51 JUMPI DUP1 PUSH4 0x98D5FDCA EQ PUSH2 0x6F JUMPI DUP1 PUSH4 0xA0BFA1E0 EQ PUSH2 0x8D JUMPI DUP1 PUSH4 0xDBD0E1B6 EQ PUSH2 0xAB JUMPI JUMPDEST PUSH1 0x0 DUP1 REVERT JUMPDEST PUSH2 0x59 PUSH2 0xC9 JUMP JUMPDEST PUSH1 0x40 MLOAD PUSH2 0x66 SWAP2 SWAP1 PUSH2 0x264 JUMP JUMPDEST PUSH1 0x40 MLOAD DUP1 SWAP2 SUB SWAP1 RETURN JUMPDEST PUSH2 0x77 PUSH2 0xE0 JUMP JUMPDEST PUSH1 0x40 MLOAD PUSH2 0x84 SWAP2 SWAP1 PUSH2 0x249 JUMP JUMPDEST PUSH1 0x40 MLOAD DUP1 SWAP2 SUB SWAP1 RETURN JUMPDEST PUSH2 0x95 PUSH2 0xEA JUMP JUMPDEST PUSH1 0x40 MLOAD PUSH2 0xA2 SWAP2 SWAP1 PUSH2 0x227 JUMP JUMPDEST PUSH1 0x40 MLOAD DUP1 SWAP2 SUB SWAP1 RETURN JUMPDEST PUSH2 0xB3 PUSH2 0x17C JUMP JUMPDEST PUSH1 0x40 MLOAD PUSH2 0xC0 SWAP2 SWAP1 PUSH2 0x20C JUMP JUMPDEST PUSH1 0x40 MLOAD DUP1 SWAP2 SUB SWAP1 RETURN JUMPDEST PUSH1 0x0 PUSH1 0x1 PUSH1 0x0 SWAP1 SLOAD SWAP1 PUSH2 0x100 EXP SWAP1 DIV PUSH1 0xFF AND SWAP1 POP SWAP1 JUMP JUMPDEST PUSH1 0x0 PUSH1 0x7 SLOAD SWAP1 POP SWAP1 JUMP JUMPDEST PUSH1 0x60 PUSH1 0x5 DUP1 SLOAD PUSH2 0xF9 SWAP1 PUSH2 0x317 JUMP JUMPDEST DUP1 PUSH1 0x1F ADD PUSH1 0x20 DUP1 SWAP2 DIV MUL PUSH1 0x20 ADD PUSH1 0x40 MLOAD SWAP1 DUP2 ADD PUSH1 0x40 MSTORE DUP1 SWAP3 SWAP2 SWAP1 DUP2 DUP2 MSTORE PUSH1 0x20 ADD DUP3 DUP1 SLOAD PUSH2 0x125 SWAP1 PUSH2 0x317 JUMP JUMPDEST DUP1 ISZERO PUSH2 0x172 JUMPI DUP1 PUSH1 0x1F LT PUSH2 0x147 JUMPI PUSH2 0x100 DUP1 DUP4 SLOAD DIV MUL DUP4 MSTORE SWAP2 PUSH1 0x20 ADD SWAP2 PUSH2 0x172 JUMP JUMPDEST DUP3 ADD SWAP2 SWAP1 PUSH1 0x0 MSTORE PUSH1 0x20 PUSH1 0x0 KECCAK256 SWAP1 JUMPDEST DUP2 SLOAD DUP2 MSTORE SWAP1 PUSH1 0x1 ADD SWAP1 PUSH1 0x20 ADD DUP1 DUP4 GT PUSH2 0x155 JUMPI DUP3 SWAP1 SUB PUSH1 0x1F AND DUP3 ADD SWAP2 JUMPDEST POP POP POP POP POP SWAP1 POP SWAP1 JUMP JUMPDEST PUSH1 0x0 PUSH1 0x3 PUSH1 0x0 SWAP1 SLOAD SWAP1 PUSH2 0x100 EXP SWAP1 DIV PUSH20 0xFFFFFFFFFFFFFFFFFFFFFFFFFFFFFFFFFFFFFFFF AND SWAP1 POP SWAP1 JUMP JUMPDEST PUSH2 0x1AF DUP2 PUSH2 0x29B JUMP JUMPDEST DUP3 MSTORE POP POP JUMP JUMPDEST PUSH1 0x0 PUSH2 0x1C0 DUP3 PUSH2 0x27F JUMP JUMPDEST PUSH2 0x1CA DUP2 DUP6 PUSH2 0x28A JUMP JUMPDEST SWAP4 POP PUSH2 0x1DA DUP2 DUP6 PUSH1 0x20 DUP7 ADD PUSH2 0x2E4 JUMP JUMPDEST PUSH2 0x1E3 DUP2 PUSH2 0x378 JUMP JUMPDEST DUP5 ADD SWAP2 POP POP SWAP3 SWAP2 POP POP JUMP JUMPDEST PUSH2 0x1F7 DUP2 PUSH2 0x2CD JUMP JUMPDEST DUP3 MSTORE POP POP JUMP JUMPDEST PUSH2 0x206 DUP2 PUSH2 0x2D7 JUMP JUMPDEST DUP3 MSTORE POP POP JUMP JUMPDEST PUSH1 0x0 PUSH1 0x20 DUP3 ADD SWAP1 POP PUSH2 0x221 PUSH1 0x0 DUP4 ADD DUP5 PUSH2 0x1A6 JUMP JUMPDEST SWAP3 SWAP2 POP POP JUMP JUMPDEST PUSH1 0x0 PUSH1 0x20 DUP3 ADD SWAP1 POP DUP2 DUP2 SUB PUSH1 0x0 DUP4 ADD MSTORE PUSH2 0x241 DUP2 DUP5 PUSH2 0x1B5 JUMP JUMPDEST SWAP1 POP SWAP3 SWAP2 POP POP JUMP JUMPDEST PUSH1 0x0 PUSH1 0x20 DUP3 ADD SWAP1 POP PUSH2 0x25E PUSH1 0x0 DUP4 ADD DUP5 PUSH2 0x1EE JUMP JUMPDEST SWAP3 SWAP2 POP POP JUMP JUMPDEST PUSH1 0x0 PUSH1 0x20 DUP3 ADD SWAP1 POP PUSH2 0x279 PUSH1 0x0 DUP4 ADD DUP5 PUSH2 0x1FD JUMP JUMPDEST SWAP3 SWAP2 POP POP JUMP JUMPDEST PUSH1 0x0 DUP2 MLOAD SWAP1 POP SWAP2 SWAP1 POP JUMP JUMPDEST PUSH1 0x0 DUP3 DUP3 MSTORE PUSH1 0x20 DUP3 ADD SWAP1 POP SWAP3 SWAP2 POP POP JUMP JUMPDEST PUSH1 0x0 PUSH2 0x2A6 DUP3 PUSH2 0x2AD JUMP JUMPDEST SWAP1 POP SWAP2 SWAP1 POP JUMP JUMPDEST PUSH1 0x0 PUSH20 0xFFFFFFFFFFFFFFFFFFFFFFFFFFFFFFFFFFFFFFFF DUP3 AND SWAP1 POP SWAP2 SWAP1 POP JUMP JUMPDEST PUSH1 0x0 DUP2 SWAP1 POP SWAP2 SWAP1 POP JUMP JUMPDEST PUSH1 0x0 PUSH1 0xFF DUP3 AND SWAP1 POP SWAP2 SWAP1 POP JUMP JUMPDEST PUSH1 0x0 JUMPDEST DUP4 DUP2 LT ISZERO PUSH2 0x302 JUMPI DUP1 DUP3 ADD MLOAD DUP2 DUP5 ADD MSTORE PUSH1 0x20 DUP2 ADD SWAP1 POP PUSH2 0x2E7 JUMP JUMPDEST DUP4 DUP2 GT ISZERO PUSH2 0x311 JUMPI PUSH1 0x0 DUP5 DUP5 ADD MSTORE JUMPDEST POP POP POP POP JUMP JUMPDEST PUSH1 0x0 PUSH1 0x2 DUP3 DIV SWAP1 POP PUSH1 0x1 DUP3 AND DUP1 PUSH2 0x32F JUMPI PUSH1 0x7F DUP3 AND SWAP2 POP JUMPDEST PUSH1 0x20 DUP3 LT DUP2 EQ ISZERO PUSH2 0x343 JUMPI PUSH2 0x342 PUSH2 0x349 JUMP JUMPDEST JUMPDEST POP SWAP2 SWAP1 POP JUMP JUMPDEST PUSH32 0x4E487B7100000000000000000000000000000000000000000000000000000000 PUSH1 0x0 MSTORE PUSH1 0x22 PUSH1 0x4 MSTORE PUSH1 0x24 PUSH1 0x0 REVERT JUMPDEST PUSH1 0x0 PUSH1 0x1F NOT PUSH1 0x1F DUP4 ADD AND SWAP1 POP SWAP2 SWAP1 POP JUMP INVALID LOG2 PUSH5 0x6970667358 0x22 SLT KECCAK256 SWAP15 0x5E LOG1 SWAP5 INVALID 0x4B 0xDF STATICCALL 0xAE PUSH21 0x51060D11CCCDA3B78A4E2DD5E9D4129A06756DD5DA PUSH13 0x64736F6C634300080600330000 "
		},
		"gasEstimates": {
			"creation": {
				"codeDepositCost": "191800",
				"executionCost": "infinite",
				"totalCost": "infinite"
			},
			"external": {
				"getDoor()": "2457",
				"getModel()": "infinite",
				"getPrice()": "2437",
				"getSeller()": "2566"
			}
		},
		"methodIdentifiers": {
			"getDoor()": "19e6f3a5",
			"getModel()": "a0bfa1e0",
			"getPrice()": "98d5fdca",
			"getSeller()": "dbd0e1b6"
		}
	},
	"abi": [
		{
			"inputs": [
				{
					"internalType": "string",
					"name": "_model",
					"type": "string"
				},
				{
					"internalType": "uint256",
					"name": "_premium",
					"type": "uint256"
				}
			],
			"stateMutability": "nonpayable",
			"type": "constructor"
		},
		{
			"inputs": [],
			"name": "getDoor",
			"outputs": [
				{
					"internalType": "uint8",
					"name": "",
					"type": "uint8"
				}
			],
			"stateMutability": "view",
			"type": "function"
		},
		{
			"inputs": [],
			"name": "getModel",
			"outputs": [
				{
					"internalType": "string",
					"name": "",
					"type": "string"
				}
			],
			"stateMutability": "view",
			"type": "function"
		},
		{
			"inputs": [],
			"name": "getPrice",
			"outputs": [
				{
					"internalType": "uint256",
					"name": "",
					"type": "uint256"
				}
			],
			"stateMutability": "view",
			"type": "function"
		},
		{
			"inputs": [],
			"name": "getSeller",
			"outputs": [
				{
					"internalType": "address",
					"name": "",
					"type": "address"
				}
			],
			"stateMutability": "view",
			"type": "function"
		}
	]
}